:020000040800F2
:10000000E0060020450100081D2C0008912300088F
:10001000C52B0008210B0008493200080000000031
:100020000000000000000000000000007F2C00081D
:10003000230B0008000000007D2C0008ED2C0008B8
:100040005F0100085F0100085F0100085F01000810
:100050005F0100085F0100085F0100085F01000800
:100060005F0100085F0100085F0100085F010008F0
:100070005F0100085F0100085F0100085F010008E0
:100080005F0100085F0100085F0100085F010008D0
:100090005F0100085F0100085F0100085F010008C0
:1000A0005F0100085F0100085F0100085F010008B0
:1000B0005F0100085F0100085F0100085F010008A0
:1000C0005F0100085F0100085F0100085F01000890
:1000D0005F0100085F0100085F0100083D32000871
:1000E0005F0100085F0100085F0100085F01000870
:1000F0005F0100085F0100085F0100085F01000860
:100100005F0100085F010008512D00085F01000831
:100110005F0100085F0100085F0100085F0100083F
:100120005F0100085F0100085F0100085F0100082F
:10013000DFF80CD000F03CFC00480047F14C000810
:10014000E00600200648804706480047FEE7FEE735
:10015000FEE7FEE7FEE7FEE7FEE7FEE7FEE7FEE777
:100160004F2D0008310100082DE9F0410024061B45
:10017000254671F1000605DA01240027D0EB0700BF
:1001800067EB0101161E73F1000605DA0027D2EBBA
:100190000702012567EB030300F023FB86460E46AA
:1001A00017469C46AC4204D00025D0EB050E65EB0B
:1001B000010624B10020D2EB000760EB030C70466F
:1001C00031463A466346BDE8F081202A04DB203AF6
:1001D00021FA02F00021704721FA02F3D040C2F167
:1001E00020029140084319467047D2B201E000F85E
:1001F000012B491EFBD270470022F6E710B51346CB
:100200000A4604461946FFF7F0FF204610BD30B5F8
:1002100004460020034600E05B1C934203D2E05CEE
:10022000CD5C401BF8D030BDF0B480EA0102D40FA1
:100230004200B2EB410F02D20246084611464A0084
:1002400042D0C30DDDB2C1F3C752AD1A202D35DA4D
:10025000C1F3160141F4000204B15242C5F1200677
:1002600002FA06F12A411044B3EBD05F23D0C4B1A7
:10027000012DA0EBC35009DCF0BC4FF0004202EAB4
:10028000C352DBB200F5000000F006BB400000F1F5
:10029000807000EBC350A0F1807040EAD17049003B
:1002A00009E0490841EAC071A0EBC35000F5000025
:1002B000400800EBC350F0BC00F0E5BA61420122F7
:1002C00002EB4101001BF6E7F0BC704781F00041F2
:1002D000AAE780F00040A7E780EA010210B502F02B
:1002E0000043400022D04A001FD0010E01EB1261F2
:1002F000C0F35600C2F3560240F4000042F400027C
:10030000A0FB022000047F39140400D0401C50EAF6
:10031000124001D44000491EC2B20C0604EBD010BA
:10032000401C4008802A02D003E0002010BD20F0CD
:100330000100002900DA0020184310BD30B480EA23
:10034000010202F0004530F0004221F0004013D0DD
:1003500090B1C30DD40DC2F31601C0F31600E41A18
:1003600041F4000140F400027D34914201D3641C49
:1003700000E04900002C02DA30BC002070474FF446
:1003800000000023914201D3891A034340084FEA39
:100390004101F7D151B1914202D14FF0004105E046
:1003A00002D24FF0010101E06FF0010103EBC450F4
:1003B000284430BC00F067BA420005D0C0F3C752F1
:1003C0005242914201DC0020704700EBC15070475F
:1003D0002DE9FE4F804681EA0300C00F0C460090D5
:1003E00021F0004123F00045B8EB0200A94105D2FD
:1003F0004046214690461C460B46024623F00040EC
:10040000104347D0270DC7F30A00C3F30A510290E7
:10041000401A019040286BDAC3F3130040F4801BAC
:100420000098924620B10023D2EB030A63EB0B0B3A
:1004300001985946C0F14002504600F003FA0646C2
:100440000D4650465946019A00F00BFA10EB080091
:100450006141002487EA115284EAE7731A4340D0CD
:10046000009A62B3019A012A4FEA075215DC001B79
:1004700061EB02014FF0004202EA0752CDE900426F
:10048000001C41F5801132462B4600F042FA03B0C1
:10049000BDE8F08F40462146F9E7001B61EB020101
:1004A000001C41F5801300185B412018A2F50017CD
:1004B00047EB030140EAD570B6196D4111E06D08B4
:1004C0004FEA360645EAC0754FEA0752001B61EB5A
:1004D0000201001C41F5801149084FEA3000001963
:1004E000514132462B4603B0BDE8F04F00F002BA4E
:1004F0000098012240000023D0EB020263EBE0737E
:10050000009821464FEAE074B8EB000061EB04016B
:10051000E9E783F000435BE781F0004158E72DE90C
:10052000FE4F81EA030404F0004421F000410094EE
:100530004FF0000B23F0004350EA01045ED052EA72
:1005400003045BD0C3F30A54C1F30A552C44A4F24C
:10055000F3340194A0FB0254C1F3130141F4801160
:10056000C3F3130343F4801301FB024400FB034E67
:10057000840A970A44EA815447EA8357A4FB076830
:1005800002958D0A05FB07854FEA932C04FB0C545A
:100590002705029D4FEA065847EA1637B5EB0805CE
:1005A0006EEB070C870E920E47EA811742EA831220
:1005B000A7FB0201B6EB0B0164EB00042B0D43EA31
:1005C0000C335E1844EB1C50DA465146E7FB02013F
:1005D000C5F313044FEA0B3343EA14534FEA0432D2
:1005E000019C43EA0603A4F10C040294009CCDE9AB
:1005F00000B400F08EF903B0BDE8F08F0020014692
:10060000F9E72DE9F04D81EA030404F0004B21F0F5
:10061000004514464FF0000A23F0004150EA05025D
:1006200020D054EA01021DD0C5F30A570246C5F393
:100630001303C1F31300C1F30A5640F4801543F4C9
:100640008013A7EB0608101BD64608F2FD3873EBA3
:10065000050002D308F1010801E092185B41B8F1EE
:10066000000F03DA00200146BDE8F08D00204FF4B2
:100670008011064684460EE0171B73EB050705D371
:10068000121B63EB050306434CEA010C49084FEAD1
:10069000300092185B4150EA0107EDD152EA0300A5
:1006A00012D082EA040083EA0501084305D0101B3A
:1006B000AB4106D20122002306E000224FF00043A6
:1006C00002E06FF0010253101AEB06004CEB0851E8
:1006D00010EB0A0041EB0B01BDE8F04D00F00AB948
:1006E00070B521F0004303430CD0C1F30A55002438
:1006F000D5EB040564EB0403D617AD1AB34102DB56
:100700000020014670BD201841EB025170BDC10FA1
:1007100080EAE0700844CA079623002100F0BCB8C4
:1007200096230022114600F0B7B800F0004220F0F6
:100730000040C10DC0F3160040F400007F2901DA2B
:1007400000207047962903DCC1F19601C84001E002
:1007500096398840002AF4D04042704720F000408B
:10076000C10DC0F3160040F400007F2901DA00201B
:100770007047962903DCC1F19601C840704796394D
:100780008840704700F0004230F000400AD0C10DB0
:1007900001F56071C0F3160042EA0151C20840073A
:1007A0001143704700200146704701F0004330B408
:1007B00021F0004150EA010206D00A0DA2F5607254
:1007C000C1F31301002A02DC30BC00207047440F43
:1007D00044EAC104C100E01830BC00EBC25000F094
:1007E00052B82DE9F05F0546002092469B468846A8
:1007F0000646814640241BE028464146474622469D
:10080000FFF7E3FC53465A46C01A914110D31146F4
:100810001846224600F016F82D1A67EB01084F46DD
:1008200022460120002100F00DF817EB00094E418F
:10083000201EA4F10104DFDC484631462A46434627
:10084000BDE8F09F202A04DB203A00FA02F10020E4
:1008500070479140C2F1200320FA03F319439040FE
:100860007047202A06DBCB17203A41FA02F043EA10
:10087000E07306E041FA02F3D040C2F12002914059
:100880000843194670470029A8BF7047401C49001B
:1008900008BF20F00100704710B4B0FA80FC00FAE5
:1008A0000CF050EA010404BF10BC704749B1CCF110
:1008B000200421FA04F411FA0CF118BF012121439C
:1008C0000843A3EB0C01CB1D4FEA00614FEA102057
:1008D00042BF002010BC704700EBC35010440029F9
:1008E000A4BF10BC7047401C490008BF20F00100A5
:1008F00010BC704710B5141E73F1000408DA401CD8
:1009000041F1000192185B411A4301D120F001002E
:1009100010BD2DE9F04D92469B4611B1B1FA81F21E
:1009200002E0B0FA80F220329046FFF78BFF0446D7
:100930000F4640EA0A0041EA0B0153465A46084373
:1009400013D0114653EA010019D0C8F140025046B5
:10095000FFF73BFC05460E46504659464246FFF718
:1009600071FF084305D0012004E020463946BDE868
:10097000F08D0020054346EAE0762C4337430A9881
:100980006305E40AA0EB08000022FD0A44EA47548C
:100990000A3002D500200146E9E701051019694136
:1009A000DDE9084500196941BDE8F04DA2E7000006
:1009B000064C074D06E0E06840F0010394E80700AC
:1009C00098471034AC42F6D3FFF7B6FBA07000088E
:1009D000C07000082DE9F04D00231A461B1A8A4109
:1009E00003DB00200146BDE8F08DC1F30A52C1F3DC
:1009F000130141F480154FF0000BD10702D100180C
:100A00006D41521E0027044640F2FF11384601EBAB
:100A1000620A3E468046024600204FF48011FFF7EE
:100A2000D4FBC2197141BB1846EB0100B4EB030CB7
:100A300075EB000C04D3E41A65EB000517460E466F
:100A4000241908F101006D4180463428E3DDF919CD
:100A500046EB0600091BA84103D24FF0FF321346B4
:100A600001E0002213461BEB070046EB0A51BDE8EC
:100A7000F04DFFF73FBF000010B5214800F024FE05
:100A80000021204801F04AF902F0FAF802F0B8F823
:100A900000F048F802F0A6F8002002F0F5F8642013
:100AA00000F016F9184C0021606902F0C9F804F151
:100AB0001C01486101466069FFF7B6FBFFF735FE90
:100AC000FFF725FE02F0E0F801221049104801F07E
:100AD000C7FB012211460F4800F00DFA05F082F81D
:100AE00002F09EF8012209490B4801F0B9FBBDE86C
:100AF00010404FF6FF73012208A1074801F0EEBB3A
:100B00000C0200207C010020780000200000002062
:100B10005402002000180140980200204300000009
:100B2000FEE7704710B50021084800F011FF0421CE
:100B3000064800F00DFF0021054800F009FFBDE860
:100B400010400421024800F003BF000034010020DF
:100B5000C401002072B6FEE710B590F82110002203
:100B6000022905D00421816380F82020012010BDD6
:100B700001680B6823F00E030B6001680B6823F01B
:100B800001030B6090F84030C46B012101FA03F3BC
:100B9000636080F8211080F82020104610BD00000E
:100BA0002DE9F05F90F821100024022903D00421E0
:100BB0008163012485E001680A6822F00E020A6060
:100BC00001680A6822F001020A603F4E3E4FB215EA
:100BD000DFF8F4C0DFF8F090DFF8ECA0DFF8E8B061
:100BE000DFF8E4E00168783F13011502ACF1640C12
:100BF000A9F15009AAF13C0AABF1280BAEF1140E91
:100C00004FF48018B14227D9B9420ED0614512D0B5
:100C100049451DD0514518D0594518D0714501D1CD
:100C2000424615E0294EB14201D1012210E0274E83
:100C30001436B14201D110220AE0244E2836B142C6
:100C400006D0224A3C32914201D11A4600E02A469F
:100C50001E49091F0A602BE0B94213D0614517D025
:100C6000494522D051451DD059451DD0714501D16E
:100C700042461AE0B14202D14FF0807215E0134EA5
:100C8000B14201D1012210E0104E1436B14201D11F
:100C900010220AE00D4E2836B14206D00B4A3C32F3
:100CA000914201D11A4600E02A46074980394A603C
:100CB000012180F82110002180F82010416B01B142
:100CC00088472046BDE8F09F8000024008040240AB
:100CD00070B5044600F014F90546601C02D00448C3
:100CE0000078044400F00CF9401BA042FAD370BD18
:100CF000440000202DE9F84FDFF8C891002409F1E5
:100D0000040A0AF1040B23460F270BF1040ED1E06D
:100D10000125A54006EA0502AA4276D1DFF8A8C15E
:100D20004E68A6EB0C0866452BD00DDC032E34D0A4
:100D300005DC36B3012E19D0022E2FD11BE0112E67
:100D400016D0122E2AD119E0B8F5881F19D006DC6A
:100D5000B8F5803F15D0B8F5801F1FD111E0B8F568
:100D6000001F0ED0B8F5041F18D10AE0CB6815E0BB
:100D7000CB681B1D12E0CB6808330FE0CB680C3347
:100D80000CE08B682BB1012B4FF0080303D04561B9
:100D900004E0042302E0056100E00023FF2A01D8FB
:100DA000064601E000F104064FEA840501D9A5F1E9
:100DB0002005D6F8008007FA05FC28EA0C0803FA9B
:100DC00005F548EA0508C6F800804D68ED0070D5C5
:100DD0003E4DAE6946F00106AE61AD6924F00306F2
:100DE00005F0010500953A4D06EB050CDCF80850BE
:100DF000A607360F07FA06F825EA0805DFF8D480BB
:100E0000404503D14FF0000825E052E0DFF8C880EC
:100E1000404502D14FF001081DE0DFF8C080404599
:100E200002D14FF0020816E0DFF8B480404502D14D
:100E30004FF003080FE0DFF8AC80404502D14FF0DF
:100E4000040808E0DFF8A080404502D14FF0050813
:100E500001E04FF0060808FA06F848EA0508CCF861
:100E600008804D68D9F80060ED034D4601D5164362
:100E700000E096432E604D68DAF80060AD035546F9
:100E800001D5164300E096432E604D68DBF8006004
:100E9000ED025D4601D5164300E096432E604D6895
:100EA000DEF80060AD02754601D5164300E09643BA
:100EB0002E60641C0A681646E2407FF429AFBDE844
:100EC000F88F0000000401400000111000100240E3
:100ED0000000014000080140000C014000100140EA
:100EE0000014014000180140001C014080680840C7
:100EF00000D0012070470AB1016170470904FBE787
:100F00000148806870470000440000200248816862
:100F1000027811448160704744000020074810B5F2
:100F2000016841F010010160032000F075F80F2006
:100F300000F006F800F024F8002010BD0020024068
:100F400070B50D4D04464FF47A712878B1FBF0F07E
:100F50000A490968B1FBF0F000F0ECFA48B9102C2E
:100F600007D200222146501E00F036F800206C60A7
:100F700070BD012070BD0000440000205000002022
:100F80000C4808B5816941F001018161816901F076
:100F900001010091C16941F08051C161C06900F057
:100FA000805000900448416821F0E06141F00071F8
:100FB000416008BD0010024000000140002809DB2C
:100FC00000F01F02012191404009800000F1E02063
:100FD000C0F8001170470000F0B40E4B1B680C46BF
:100FE000C3F30223C3F10705042D00D90425191DFD
:100FF000072901D2002300E0DB1E012606FA05F1D5
:10100000491E214099409E40761E16403143F0BC57
:1010100002F040B90CED00E0064900F00702086854
:101020004FF6FF03184040EA0220034A10430860CD
:10103000704700000CED00E00000FA052DE9F047D4
:101040000F46050061D0434E306800F00700B842FB
:1010500009D2306820F0070038433060306800F073
:101060000700B84251D128683B4C810712D5400790
:1010700003D5606840F4E06060602878000703D51D
:10108000606840F4605060606068A96820F0F0001B
:10109000084360602878C00728D06868012810D00D
:1010A0002168022810D0890700292EDA616821F012
:1010B000030101436160FFF723FF804641F2883955
:1010C0000DE021688903EFE78901EDE7FFF718FFDD
:1010D000A0EB0801494502D90320BDE8F08760680C
:1010E000696800F00C00B0EB810FEFD1306800F0C0
:1010F0000700B8420BD9306820F007003843306051
:10110000306800F00700B84201D00120E5E72878F8
:10111000400705D56068E96820F4E0600843606036
:101120002878000706D56068296920F4605040EAF5
:10113000C100606000F038F86168084AC1F303112B
:10114000515CC8400649086006480068FFF7F8FE91
:101150000020C2E70020024000100240466F000855
:1011600050000020480000200448054900684968F4
:10117000044AC1F30221515CC8407047500000206E
:1011800000100240566F000804480549006849688D
:10119000044AC1F3C221515CC8407047500000208E
:1011A00000100240566F000812A185B00FC98DE8EB
:1011B0000F0014A0144A006804905168134801F00D
:1011C0000C03042B10D0082B0ED1C1F38343C903A9
:1011D0001DF803000AD5516804AAC1F34041515CCF
:1011E0000A4A5043B0FBF1F005B070470849484344
:1011F000FAE7000002030405060708090A0B0C0DB4
:101200000E0F1010010200000010024000127A00C0
:1012100000093D002DE9F84F040070D02078C04D42
:10122000C00749D06868C0F38100012807D068680A
:10123000C0F38100022809D16868C00306D5286878
:10124000800339D560680028E7D035E06068B0F5E4
:10125000803F0BD010B1B0F5A02F11D0286820F43A
:1012600080302860286820F4802002E0286840F45C
:1012700080302860606890B1FFF742FE06460AE0C1
:10128000286840F480202860F0E700BFFFF738FEB0
:10129000801B642873D828688003F7D50CE0FFF71B
:1012A0002FFE064605E000BFFFF72AFE801B6428DC
:1012B000F0D828688003F7D420789A4E80074FF042
:1012C00001094FF0000839D5686810F00C0F07D0FD
:1012D0006868C0F38100022809D16868C00306D499
:1012E0002868800714D52069012808D110E02069FA
:1012F000B0B1C6F80090FFF703FE074605E00AE12B
:10130000FFF7FEFDC01B0228C4D828688007F7D568
:101310002868616920F0F80040EAC10028600DE00B
:10132000C6F80080FFF7ECFD074604E0FFF7E8FD94
:10133000C01B022823D828688007F7D4207800072C
:101340002CD57948A169D9B1C0F80090FFF7D8FD34
:10135000074604E0FFF7D4FDC01B02280FD8686AD7
:101360008007F7D571484FF4FA510068B0FBF1F0EF
:10137000009000BF0098411E0091FAD20EE080E07C
:10138000C0F80080FFF7BCFD074604E0FFF7B8FD9A
:10139000C01B022875D8686A8007F7D420784007F8
:1013A00060D5E8690027C00008D4E86940F08050A3
:1013B000E861E869012700F0805000905C4801680E
:1013C000C90513D40168834641F480710160FFF7B9
:1013D00097FD824606E000BFFFF792FDA0EB0A00F2
:1013E00064284ED8DBF80000C005F5D5E068012878
:1013F0000AD008B1052813D0286A20F0010028621D
:10140000286A20F0040002E0286A40F00100286207
:10141000E06841F2883B98B1FFF772FD82460BE02D
:10142000286A40F004002862EEE700BFFFF768FD7D
:10143000A0EB0A0159455AD8286A8007F6D50CE076
:10144000FFF75EFD824605E0FFF75AFDA0EB0A01BB
:1014500059454CD8286A8007F6D41FB1E86920F0B6
:101460008050E861E06988B36968C1F381010229AD
:1014700044D00228C6F8608004D0FFF741FD04463E
:1014800038E034E0FFF73CFD074604E0FFF738FDA5
:10149000C01B02282BD828688001F7D4206AB0F539
:1014A000803F05D16868A16820F400300843686077
:1014B000D4E908010843696821F47411084368609D
:1014C000C6F86090FFF71CFD044606E025E000BF6B
:1014D000FFF716FD001B022809D828688001F7D500
:1014E0001BE000BFFFF70CFD001B022802D9032000
:1014F000BDE8F88F28688001F4D40EE00128F7D009
:101500006868226A00F48031914204D1616A00F473
:101510007010884201D00120EAE70020E8E70000CF
:10152000001002400000424280044242500000206D
:101530000070004010B5401EB0F1807F01D3012043
:1015400010BD4FF0E02460610F21601701F0A2FE92
:101550000020A06107202061002010BD7047704767
:1015600010B590F83C20012A22D0012280F83C20BE
:10157000CA688C6822F4407222434C6822F480626C
:1015800022430C6822F4006222430C6922F4805248
:1015900022434C6922F400522243C969002322F4F9
:1015A00080420A4301684A6480F83C30002010BD44
:1015B000022010BD70B590F83C20012A2CD00124E7
:1015C00080F83C40022280F83D2003685A689D68FC
:1015D00022F070060A6832435A60104B02689A4241
:1015E0000ED00F4B9A420BD0B2F1804F08D00D4B6A
:1015F0009A4205D00C4B9A4202D00C4B9A4204D12D
:10160000496825F080031943916080F83D4000212E
:1016100080F83C10084670BD022070BD002C0140CF
:10162000003401400004004000080040000C00406D
:1016300010B5040003D094F83D0010B107E001207C
:1016400010BD002084F83C00204600F01FF8022066
:1016500084F83D00211D206801F080FB012084F802
:10166000460084F83E0084F83F0084F8400084F887
:10167000410084F8420084F8430084F8440084F870
:10168000450084F83D00002010BD000008B500684A
:101690000B49884212D10B48C16941F00801C16170
:1016A000C069002200F00800009011463220FFF7C8
:1016B00093FCBDE808403220FFF780BC08BD000065
:1016C000000C00400010024090F83D10012901D0AC
:1016D00001207047022180F83D100168CA6842F07D
:1016E0000102CA6000680E4988420ED00D49884246
:1016F0000BD0B0F1804F08D00B49884205D00B4980
:10170000884202D00A49884204D1816801F0070169
:10171000062903D0016841F00101016000207047F3
:10172000002C01400034014000040040000800404B
:10173000000C004070B5044690F83C00012817D01A
:10174000012584F83C50022084F83D00206882681E
:1017500022F0770222F47F4282600868502830D05D
:101760000DDC20284DD005DC98B310283BD148E093
:10177000022070BD302844D0402834D139E06028A0
:1017800028D0702806D0B0F5805F2CD0B0F5005F6F
:1017900029D10AE0CB68D1E90121206801F031FBB1
:1017A0002068816841F0770109E0CB68D1E9012127
:1017B000206801F026FB2068816841F48041816047
:1017C00011E0CA684968206801F0F0FB50212068E8
:1017D00007E016E0CA684968206801F0F8FB60215C
:1017E000206801F018FB84F83D50002084F83C008C
:1017F00070BDCA684968206801F0D8FB40212068A4
:10180000EFE7226801461046EBE72DE9F0410D466F
:10181000040003D094F83D0018B108E00120BDE8B1
:10182000F081002084F83C00204600F041F80220BE
:1018300084F83D002068816844F20702914381608A
:10184000211D206801F08AFA226890689169166A61
:101850002B68AF69034340F20330814341EA07211B
:10186000A868EF6908434FF6FC418843E96840EAFD
:101870000720014328692F6A000140EA0730084326
:1018800069686D6926F0220646EA051529439360CA
:101890002268906154F8460B0162012004F81F0988
:1018A000E0752076E0762077A0750020B7E700008D
:1018B00000B585B00021009101910291039101686A
:1018C0001E48B1F1804F22D01D4A91421DD1C169FD
:1018D00041F00401C161C16901F004010491816911
:1018E00041F0200181618069694600F02000049088
:1018F0004FF4405000901348FFF7FCF9124841683C
:1019000041F0E06141F48051416005B000BDC16922
:1019100041F00101C161C16901F0010104918169D6
:1019200041F0040181618069694600F0040004907F
:10193000032000900548FFF7DDF9E6E700100240BC
:101940000008004000140140000001400008014070
:1019500070B590F83E60044690F83F5090F84230E1
:1019600090F84320022021B104290ED0012E1BD172
:1019700014E0012E18D1012B16D184F83E0084F812
:10198000420001220021206820E0012D0CD1012A13
:101990000AD184F83F0084F8430014E0012D03D1FC
:1019A000012B01D1012A01D0012070BD84F83E0035
:1019B00084F83F0084F8420084F8430001220021AB
:1019C000206801F011FA01220421206801F00CFACC
:1019D0002068016841F001010160002070BD70477E
:1019E00070B50446006801694FF00005C9438907D6
:1019F00015D4C168C943890711D4E91E01610120CA
:101A00002077206880698007204602D0FFF7E7FF33
:101A100004E000F0CFF8204600F07EF9257720683A
:101A20000169C943490717D4C168C943490713D499
:101A30006FF004010161022020772068806910F4B2
:101A4000407F204602D0FFF7CAFF04E000F0B2F862
:101A5000204600F061F9257720680169C94309072C
:101A600016D4C168C943090712D46FF00801016197
:101A7000042020772068C0698007204602D0FFF745
:101A8000AEFF04E000F096F8204600F045F9257717
:101A900020680169C943C90617D4C168C943C9068A
:101AA00013D46FF010010161082020772068C0690D
:101AB00010F4407F204602D0FFF791FF04E000F0D1
:101AC00079F8204600F028F9257720680169C94394
:101AD000C90708D1C168C943C90704D1891E01617A
:101AE000204600F075F920680169C943090609D448
:101AF000C168C943090605D46FF080010161204621
:101B0000FFF72CFD20680169C943490609D4C16863
:101B1000C943490605D46FF040010161204600F039
:101B2000FBF920680169C94389060BD4C168C94320
:101B3000890607D46FF0200101612046BDE870409E
:101B4000FFF70DBD70BD000010B586B000210091FB
:101B5000019102910391134C036813490222134827
:101B6000A3420AD18B6943F004038B61896901F0B8
:101B7000040104914FF440710BE00D4CA3420ED1CF
:101B80008B6943F004038B61896901F004010491BE
:101B90004021CDE9001269460392FFF7ABF806B089
:101BA00010BD0000002C0140001002400008014060
:101BB00000040040704770B5044690F83C000D46A4
:101BC00001280AD0012084F83C0042B1042A18D030
:101BD000082A2AD00C2A4DD139E0022070BD206895
:101BE00001F022F92068816941F0080181612068D3
:101BF000816921F004018161206881692A691143AA
:101C000011E0206801F040F92068816941F4006129
:101C100081612068816921F4806181612068816926
:101C20002A6941EA0221816124E0206801F062F919
:101C30002068C16941F00801C1612068C16921F0D3
:101C40000401C1612068C1692A69114311E020685B
:101C500001F084F92068C16941F40061C161206824
:101C6000C16921F48061C1612068C1692A6941EAC2
:101C70000221C161002084F83C0070BD10B5040051
:101C800003D094F83D0010B107E0012010BD002002
:101C900084F83C00204600F01FF8022084F83D0044
:101CA000211D206801F05AF8012084F8460084F8CC
:101CB0003E0084F83F0084F8400084F8410084F836
:101CC000420084F8430084F8440084F8450084F816
:101CD0003D00002010BD000008B50C4A01680C480A
:101CE000914207D1816941F400618161806900F40A
:101CF000006009E0074A914207D1C16941F0020141
:101D0000C161C06900F00200009008BD002C0140D4
:101D100000100240000400407047000010B5044667
:101D2000022249B104290ED0082913D094F84100A9
:101D3000012816D0012010BD94F83E000128F9D1E9
:101D400084F83E200FE094F83F000128F2D184F897
:101D50003F2008E094F840000128EBD184F84020AF
:101D600001E084F841200122206801F03DF8134988
:101D70002068134A884201D0904203D1436C43F457
:101D800000434364206888420DD090420BD0B0F1EC
:101D9000804F08D00B49884205D00B49884202D0B9
:101DA0000A49884204D1816801F00701062903D05D
:101DB000016841F001010160002010BD002C0140CC
:101DC000003401400004004000080040000C0040C6
:101DD00010B500684C4988427ED14C4A111F081F3B
:101DE00002F0F0FF494C143C6069FEF7CBFC484A16
:101DF000484BFEF7EDFAFEF7D8FCA4F11C01606138
:101E00004C790022012301F138003CB94489641C5B
:101E100024B24481372C01D14B714281CC8844B922
:101E20008489641C24B28481B4F5FA7F01D1CB800B
:101E300082810C893CB9C48B641C24B2C483822C7B
:101E400001D10B81C2834C893CB9848B641C24B2C0
:101E50008483142C01D14B8182838C893CB9048CFE
:101E6000641C24B20484642C01D18B8102840C8A0A
:101E70003CB9C48C641C24B2C484642C01D10B8290
:101E8000C2840C8B3CB9848D641C24B28485012CE3
:101E900001D10B8382854C8B44B9C48D641C24B260
:101EA000C485B4F5C87F01D14B83C285CC8944B9C0
:101EB000448C641C24B24484B4F58C7F01D1CB8162
:101EC00042844C8A3CB9848C641C24B28484FA2CED
:101ED00001D14B82828400E014E08C8A3CB9048DED
:101EE000641C24B20485322C01D18B820285CC8AF9
:101EF000002C07D1448D641C24B24485322C01D1BE
:101F0000CB82428510BD0000000C00408C000020F8
:101F1000CDCCCCCCCCCCEC3F7047704770470000A8
:101F2000F8B5026804461068D168536910F00F0FC5
:101F30004FF0000554D003F0010601F490773743C9
:101F40005FD0C20705D0CA0503D5226C42F001025A
:101F50002264420705D5DA0703D0226C42F0020260
:101F60002264820705D5DA0703D0226C42F004020E
:101F70002264020707D501F02002324303D0226C0D
:101F800042F008022264226C002A35D0800604D573
:101F9000880602D5204601F04CF820684069216C83
:101FA000C0F3801001F008010143204625D001F064
:101FB00028F82068416949061BD5416921F0400194
:101FC0004161A06BA8B158494163A06BFEF7E8FDE1
:101FD000002811D0A06B416B01B0BDE8F04008476C
:101FE00083060ED58B060CD52046BDE8F84001F0DF
:101FF00020B82046FFF792FFF8BDFFF78FFF25645A
:10200000F8BD266B2023012E52D1C60650D5CE0630
:102010004ED5106850680090506940062AD5A16BD3
:10202000086840680004000CEAD0A68D8642E7D913
:10203000E0858869202818D0D06820F48070D060AE
:102040002068416921F0010141612068416921F066
:102050004001416184F83E3025632068C16821F069
:102060001001C160A06BFEF777FDA08DE18D401AD5
:1020700081B219E0A08DE18D401A81B2E08D002877
:10208000BED00029BCD0D06820F49070D060206809
:10209000426922F00102426184F83E3025632068E3
:1020A000C26822F01002C2602046FFF736FFF8BD7A
:1020B00005062BD50D0629D594F83D002128F6D12B
:1020C000A068B0F5805F01D12069B0B1206A411CE1
:1020D0002162216800784860E08C401E0004000CFA
:1020E000E084E4D12068C16821F08001C1602068EB
:1020F000C16841F04001C160F8BD206A0088C0F3AA
:1021000008005060206A801C2062E5E74006F3D595
:102110004806F1D5D168204621F04001D16084F80D
:102120003D3000F034F9F8BDF32F000870B504001D
:1021300004D094F83D00002510B106E0012070BDE8
:1021400084F83C50204600F023F8242084F83D0019
:102150002068C16821F40051C160204600F0C4FF2E
:102160002068016921F4904101612068416921F0F2
:102170002A0141612068C16841F40051C1602564B1
:10218000202084F83D0084F83E00002070BD00004F
:1021900030B585B0002400940194029403942B4D33
:1021A00003682B4802210322AB4222D1C36943F4C6
:1021B0000033C361C36903F400330493836943F0BC
:1021C000040383618069234D00F00400049004201F
:1021D000CDE90001039269462846FEF78BFD0820F1
:1021E000CDE90004694628460294FEF783FD05B058
:1021F00030BD194DAB42FAD1C36943F48023C361AA
:10220000C36903F480230493836943F00803836163
:102210008069039200F0080004902815CDE90001C0
:102220000E4D69462846FEF765FDE814CDE9000429
:10223000694628460294FEF75DFD002211462720DC
:10224000FEF7CAFE2720FEF7B9FED0E700440040A3
:10225000001002400008014000480040000C01400E
:1022600090F83E30202B0ED159B152B190F83C304D
:10227000012B08D0012380F83C300023036300F0D9
:102280008FBF0120704702207047000010B5006822
:102290000E49884213D101220D490E48FFF7E0FF95
:1022A0000B4801780C483139052908D2DFE801F0E4
:1022B0000305080A0C00012100E00221818010BD05
:1022C0000321FBE70421F9E70521F7E70048004077
:1022D0000000002098020020940000202DE9F8431F
:1022E000044690F83D001F4616460D4620284CD166
:1022F000C5B1BEB194F83C00012846D0012084F855
:102300003C004FF00008C4F84080212084F83D00D4
:10231000FEF7F6FDA6848146E684A068B0F5805FEE
:1023200003D004E00120BDE8F883206928B12E46DF
:102330005FF0000584F83C800EE00026FAE780217B
:10234000204600F048FFA0B9AEB116F8010B216895
:102350004860E08C401EE084E08C4B464FF0000269
:1023600000970028EBD14FF04001204600F033FFEA
:1023700030B10320D7E735F8020BC0F30800E6E7D9
:10238000202084F83D000020CDE70220CBE77047F5
:10239000FEE7000070B5104D4FF400740022214696
:1023A0002846FEF7A8FD00F019F801221602314672
:1023B0002846FEF7A0FD00F011F80022314628461D
:1023C000FEF799FD00F00AF821462846BDE8704066
:1023D0000122FEF790BD0000001801400020401CC3
:1023E000C0B20A28FBD370470C4800B5816985B09C
:1023F00041F0040181618069694600F004000490A5
:102400004FF4407000900320039011200190044885
:10241000FEF770FC00F0AAF805B000BD0010024005
:102420000018014070B50C4C012251022046FEF705
:1024300062FDFFF7D3FF0122150229462046FEF771
:102440005AFDFFF7CBFF002229462046FEF753FD39
:10245000BDE87040FFF7C2BF001801402DE9F0470A
:102460000024164E804625464FF400794FF48077BD
:102470006006040E012239463046FEF73CFDFFF7A8
:10248000ADFF49463046FEF731FD08B1641CE4B2A9
:10249000002239463046FEF72EFDFFF79FFF6D1CE8
:1024A000EDB2082DE4D3B8F1000F04D0FFF772FFAE
:1024B0002046BDE8F087FFF7B5FFF9E700180140B7
:1024C0002DE9F041174E054600244FF480774FF474
:1024D0000078280601D5012200E00022414630465E
:1024E000FEF709FDFFF77AFF012239463046FEF775
:1024F00002FDFFF773FF002239463046FEF7FBFC72
:10250000072C04D1012241463046FEF7F4FC680650
:10251000050EFFF763FF641CE4B2082CD9D3BDE8B5
:10252000F08100000018014070B501220E4D5402E8
:1025300021462846FEF7DFFC0122160231462846D6
:10254000FEF7D9FCFFF74AFF002221462846FEF796
:10255000D2FCFFF743FF002231462846FEF7CBFCB2
:10256000BDE87040FFF73ABF0018014070B50B4D51
:102570004FF40074002221462846FEF7BCFC0122DD
:1025800011022846FEF7B7FCFFF728FF2146284630
:10259000BDE870400122FEF7AEBC0000001801400B
:1025A00070B50122104D540221462846FEF7A3FCC7
:1025B000FFF714FF0122160231462846FEF79BFC66
:1025C000FFF70CFF21462846FEF790FC08B10124D6
:1025D00000E00024002231462846FEF78CFCFFF77D
:1025E000FDFE204670BD00000018014070B5194C7A
:1025F000194D012608B1267001E0207848B110215C
:102600002846FEF773FC58B108212846FEF76EFCF9
:1026100030B108212846FEF769FC012811D017E0E7
:102620000020207008212846FEF760FC28B1102108
:102630002846FEF75BFC10B10AE0022070BD0120C5
:1026400070BD10212846FEF751FC012800D12670EC
:10265000002070BD010000200018014010B50020CE
:10266000FFF7C4FF002808D00749012806D0022838
:1026700003D1087980F00100087110BDC87880F09E
:102680000100C87010BD00005C00002010B50E4CA9
:102690004FF4807101280ED0022812D0002812D1E8
:1026A00001222046FEF727FC01222046BDE810400B
:1026B0000821FEF720BC01222046FEF71CFC002268
:1026C000F3E70022EDE710BD000C0140002800DA1E
:1026D0004042002900DA494241F65832904200DD7A
:1026E0001046914200DD1146024A13685863106893
:1026F00081637047EC00002070B54FF400410E4B31
:10270000CC100E4D01280ED002280ED0002812D178
:1027100001221846FEF7EFFB012221462846BDE8BC
:102720007040FEF7E8BB0022F3E701221846FEF7EF
:10273000E2FB0022F1E770BD00080140000C0140FF
:102740002DE9F0411D4614460F460646FFF7ECFE04
:102750007006000EFFF7B4FEFFF722FF20B1FFF76F
:1027600005FF0120BDE8F0813846FFF7A9FEFFF71D
:1027700017FFFFF7D9FE012000EB4600C0B2FFF7BC
:102780009FFEFFF70DFF09E0012C0DD05FF0010067
:10279000FFF764FE641E05F8010BE4B2002CF3D1D0
:1027A000FFF7E4FE0020DDE70020F1E72DE9F0412E
:1027B0001E4615460F460446FFF7B6FE6006000E9D
:1027C000FFF77EFEFFF7ECFE60B93846FFF778FEB4
:1027D000FFF7E6FE00240CE0305DFFF771FEFFF727
:1027E000DFFE20B1FFF7C2FE0120BDE8F081641CCE
:1027F000E4B2AC42F0D3FFF7B9FE0020F5E70000E9
:102800002DE9F04F85B000243548009401940294DE
:102810000394816941F040018161816901F04001C7
:102820000491816941F004018161816901F0040131
:102830000491816941F008018161816901F0080119
:102840000491816941F0200181618069DFF89490F1
:1028500000F02000049000224FF440714846FEF73B
:102860004AFBDFF884A041F278170022394650462F
:10287000FEF741FBDFF874B04FF4004800224146F8
:102880005846FEF738FB012211464846FEF733FB57
:10289000182001258DE8310069464846FEF72AFADE
:1028A00040F201300226CDE90005CDE90246694635
:1028B0004846FEF71FFA00970396CDE90154694692
:1028C0005046FEF717FACDF800800396CDE9015483
:1028D00069465846FEF70EFA05B0BDE8F08F0000D5
:1028E0000010024000180140000C014000080140A7
:1028F00010B592B000240F941C2168461094FDF787
:102900007BFC202107A8FDF777FC24482249C0E979
:10291000001441F61F41C0E9024180210461C0E971
:102920000541FFF7ABF908B1FEF714F90F940FA9B1
:102930001A481094FEF73EFE08B1FEF70BF960202E
:10294000CDE900040294039404940594002269469E
:1029500012480694FFF72FF908B1FEF7FBF804229E
:1029600069460E48FFF727F908B1FEF7F3F8079418
:10297000089409944FF400500A94CDE90B4007A93C
:1029800006480E94FEF7ECFD08B1FEF7E3F80348A5
:10299000FFF7DAF812B010BD002C0140EC00002067
:1029A00010B58CB024216846FDF726FC002416489B
:1029B00009944FF080410A94C0E900144FF6FF716A
:1029C000C0E902418021046181610320CDE9000456
:1029D0000120CDE902040494CDE90540079469463D
:1029E00009480894FEF711FF08B1FEF7B3F80994FF
:1029F00009A905480A94FEF7DDFD002801D0FEF77D
:102A0000A9F80CB010BD00003401002010B58AB048
:102A1000002407941C2168460894FDF7EDFB174835
:102A20001549016040F2CF21C0E9011440F2CF7195
:102A3000C0E9031480218161FFF720F908B1FEF796
:102A400089F8079407A90D480894FEF7B3FD08B16B
:102A5000FEF780F86020CDE9000402940022694668
:102A600006480494FFF7A7F808B1FEF773F8034887
:102A7000FFF76AF80AB010BD000400407C01002096
:102A800010B58CB024216846FDF7B6FB002416482B
:102A9000099414490A94C0E900144FF6FF71C0E983
:102AA00002418021046181610320CDE900040120FD
:102AB000CDE902040494CDE90540079469460A482B
:102AC0000894FEF7A2FE08B1FEF744F8099409A99C
:102AD00005480A94FEF76EFD002801D0FEF73AF88B
:102AE0000CB010BD00080040C401002010B586B035
:102AF0000024174800940194029403940494134909
:102B0000059401606321C0E9011441F61F41C0E949
:102B1000031480218161FEF78BFD08B1FEF71AF8DE
:102B20004FF48050009069460948FEF703FE08B153
:102B3000FEF710F8049404A905480594FEF73AFD41
:102B4000002801D0FEF706F806B010BD000C0040CA
:102B50000C0200200C4810B50A4901604FF41651D0
:102B60004160002181600C22C160C0E904128161D2
:102B7000C161FFF7DBFA002803D0BDE81040FDF784
:102B8000E9BF10BD00440040540200200C4810B5BD
:102B90000A4901604FF4E1314160002181600C225B
:102BA000C160C0E904128161C161FFF7BFFA00286A
:102BB00003D0BDE81040FDF7CDBF10BD0048004078
:102BC00098020020FEE70000054910B501200880AA
:102BD0000020FFF75BFDBDE810400020FFF78CBD33
:102BE0005C000020054910B5002008800120FFF797
:102BF0004DFDBDE810400120FFF77EBD5C000020C8
:102C000010B500210448FFF789F8BDE81040042101
:102C10000148FFF783B80000EC000020FEE7000049
:102C200005484FF041410160044941600021816045
:102C3000C160016141617047D40000200000C040C4
:102C400070B50D4C0246084621611146FDF73EFB6A
:102C5000A0600546E168FDF739FB6168FDF73CFBC4
:102C6000064629462068FDF737FB3146FDF7DCFABA
:102C7000E560606170BD0000D400002070477047BF
:102C8000002000F001B8000010B504460F49FDF720
:102C9000CBFAFDF777FD0E4A0E4BFDF740FC002204
:102CA0000D4BFDF7AEFC00220C4BFDF738FC00226B
:102CB0000B4BFDF78DFBFDF778FD0A49C1E900409C
:102CC000FDF74CFD08490968486310BD0000B44297
:102CD000176CC1166CC1863F00003440003C9F4019
:102CE000000049403C0000207C010020FEF70EB9A6
:102CF00030B58FB028216846FDF77EFA14210AA866
:102D0000FDF77AFA01210804CDE9001000240294AD
:102D100002250491CDE907504FF4E0100990684670
:102D2000FEF778FA08B172B6FEE70F20CDE90A0582
:102D30004FF48060CDE90C4002210AA80E94FEF702
:102D40007DF9002801D072B6FEE70FB030BD7047A4
:102D50000148FEF745BE00000C020020F0B50268F5
:102D60001C4B1D4D1D4E1E4F1E4C4FF0804C98426B
:102D700009D0A04207D0604505D0A84203D0B04298
:102D800001D0B84204D122F0700E4A6842EA0E0225
:102D9000984209D0A04207D0604505D0A84203D090
:102DA000B04201D0B84203D122F44075CA682A4328
:102DB0004D6922F080022A4302608A68C2620A6872
:102DC0008262984201D0A04201D1096901630121C8
:102DD0004161F0BD002C01400004004000080040AB
:102DE000000C00400034014010B501F01F03012128
:102DF000046A99408C430462016A9A40114301625B
:102E000010BD10B5846842EA032224F47F440A43CB
:102E10002243826010BD826822F070020A4342F0B1
:102E20000701816070470000F0B5026A22F00102DC
:102E30000262036A42688469124E24F073050C68CA
:102E40002C4323F002058B682B430D4DA84201D083
:102E5000B04205D123F00807CB683B4323F00403BD
:102E6000A84201D0B04205D14D6922F44072154309
:102E70008A692A4342608461496841630362F0BD04
:102E8000002C014000340140F0B5026A22F010022B
:102E90000262026A436884690D6824F4E64444EAE5
:102EA00005248D6822F0200242EA05120F4D104ED3
:102EB000A84201D0B04206D1CF6822F0800242EA97
:102EC000071222F04002A84201D0B04207D14D695A
:102ED00023F4406343EA85038D6943EA8503436035
:102EE0008461496881630262F0BD0000002C0140EA
:102EF00000340140F0B5026A22F480720262026A74
:102F00004368C46922F4007224F073050C68124E01
:102F10002C438D6842EA05220E4DA84201D0B042F2
:102F200006D1CF6822F4006242EA072222F48062CE
:102F3000A84201D0B04207D14D6923F4405343EA7F
:102F400005138D6943EA05134360C4614968C16391
:102F50000262F0BD002C01400034014030B5026A2D
:102F600022F480520262046A4268C3690D6823F445
:102F7000E64343EA05238D6824F4005444EA05340B
:102F8000084DA84202D0084DA84204D14D6922F450
:102F9000804242EA85124260C3614968016404626A
:102FA00030BD0000002C01400034014010B5036A20
:102FB000046A24F001040462846924F0F00444EA01
:102FC000021423F00A020A438461026210BD10B5A4
:102FD000036A23F0100303628369046A23F47043D5
:102FE00043EA023224F0A00343EA01118261016244
:102FF00010BD10B5406A0021C185C184FEF78EFF67
:1030000010BD0168CA6822F49072CA6001684A69FA
:1030100022F001024A61016B012904D10168CA68EA
:1030200022F01002CA60202180F83E1000210163C6
:10303000704708B590F83E10222901D0022008BD43
:1030400082684FF480539A4201D1016921B1816AAB
:103050009A421BD04AB10AE00268816A5268C2F300
:1030600008020A80816A891C08E0026972B102685C
:10307000526802F07F020A70816A491C8162C18D28
:10308000491E0904090CC18503D019E00268526881
:10309000F1E70168CA6822F02002CA600168CA68C4
:1030A00022F48072CA6001684A6922F001024A6112
:1030B000202180F83E10016B012903D0FFF7E6F8CC
:1030C000002008BD002101630168CA6822F01002D7
:1030D000CA6001680A68D20602D50A684968009188
:1030E000818DFEF71AFFEBE770B5044600680169B1
:1030F000E26821F44051114301612169A06808434D
:10310000616908432168CA6841F20C639A4302432B
:10311000CA6020684169A26921F44071114341618C
:103120001E492068884202D1FEF72EF801E0FEF722
:103130001BF800EBC00101EB001260686421800005
:10314000B2FBF0F3B3FBF1F36FF018067343B2FB7D
:10315000F0F5B2FBF0F605EB8305322303EB051522
:10316000B5FBF1F5B6FBF1F605F0F00505EB06153C
:10317000B2FBF0F6B2FBF0F0B0FBF1F06FF018022A
:10318000504306EB800003EB0010B0FBF1F0216828
:1031900000F00F002844886070BD00000038014036
:1031A00081628285C28500210164222280F83E204E
:1031B00080F83C100168CA6842F48072CA600168F5
:1031C0004A6942F001024A610068C16841F0200189
:1031D000C160002070472DE9F041984617460E4621
:1031E0000446069D1DE0681C1BD02DB1FDF788FE2E
:1031F000A0EB0800A84214D92068C16821F4D0715E
:10320000C1602068416921F001014161202084F8FA
:103210003D0084F83E00002084F83C000320BDE817
:10322000F0812068006836EA000004D00020B8422F
:10323000D9D00020F3E70120F9E700000148FEF7AC
:103240006FBE000098020020FEE700000FB4054B9F
:1032500010B503A9044A029800F0AAF810BC5DF862
:1032600014FB0000D947000854000020490050EA30
:10327000C12018BF04204A0D18BF40F0010040F2E1
:10328000FF72B2EB515F08BF40F00200012808BF97
:10329000052070470907090E002804DB00F1E02033
:1032A00080F80014704700F00F0000F1E02080F873
:1032B000141D70472DE9F0414F1E00EBC701044675
:1032C000D1E9000115461E4637F006020DD02A4608
:1032D0003346FDF724F97F1E04EBC703D3E900232F
:1032E000FDF776F837F00602F1D1022F25D0042F32
:1032F00013D0062F18BFBDE8F0812A463346FDF7EC
:103300000EF9D4E90A23FDF763F82A463346FDF7A0
:1033100006F9D4E90823FDF75BF82A463346FDF7A2
:10332000FEF8D4E90623FDF753F82A463346FDF7A5
:10333000F6F8D4E90423FDF74BF82A463346FDF7A7
:10334000EEF8D4E90223FDF743F82A463346FDF7A9
:10335000E6F8D4E90023BDE8F041FDF739B80122D1
:10336000FDF7BEB9FDF734B80022134610461146EA
:10337000FDF747B9024A00201107FDF7B1B9000077
:1033800001FDFFFF02E008C8121F08C1002AFAD1A0
:1033900070477047002001E001C1121F002AFBD1D5
:1033A0007047000001490860704700005800002085
:1033B0002DE9FF4F8DB00F460546002606E0252873
:1033C0000BD0DDE90F1290476D1C761C2878002881
:1033D000F5D111B03046BDE8F08F0024A246A146D9
:1033E0000122EC4900E0044315F8013F203B02FABA
:1033F00003F00842F7D128782A2810D06FF02F0266
:103400002878A0F13001092914D80AEB8A0102EBCF
:10341000410144F0020400EB010A6D1CF0E701CF0A
:103420005FEA000A03D544F40054CAF1000A44F0EC
:1034300002046D1C28782E2817D115F8010F44F0CE
:1034400004042A280ED06FF02F022878A0F1300152
:1034500009290AD809EB890102EB410100EB0109B6
:103460006D1CF2E757F8049B6D1C28786C280FD070
:1034700006DC4C2817D068280DD06A2814D104E047
:10348000742810D07A280FD10DE044F400140AE01B
:1034900044F4801401E044F440146978814202D17C
:1034A00004F580146D1C6D1C2A786E2A1FD00CDC6C
:1034B000632A31D004DC002A8BD0582A11D1A3E032
:1034C000642A68D0692A0CD165E0732A2ED004DC06
:1034D0006F2A73D0702A04D19BE0752A6FD0782AA6
:1034E0006ED01046DDE90F129047761C50E1C4F310
:1034F0000250022806D0032809D0042801CF09D0A1
:10350000066045E101CFF117C0E9006140E101CF5C
:1035100006803DE106703BE117F8040B8DF80000D2
:1035200000208DF80100EB46012003E057F804BBB2
:103530004FF0FF3061074FF0000102D40DE008F1B9
:103540000101884649450FDA8045F8DB1BF8081071
:103550000029F4D108E008F1010188468142FADB34
:103560001BF808100029F6D1DDE90F23AAEB0800AB
:103570008146214600F036F9304400EB080604E0AD
:10358000DDE90F121BF8010B9047B8F10108F7D2E3
:1035900021464846F7E00A21C4F302534FF0000BDE
:1035A0000891022B04D001CFC117032B09D00AE0E8
:1035B000FF1D27F00707F7E8020108E032E01FE0EF
:1035C00020E000B2C117042B01D140B2C117031E85
:1035D00071F1000307DA4FF0000CD0EB0C006CEB3C
:1035E00001012D2302E0230504D52B238DF824307F
:1035F000012303E0E30701D02023F7E7984658E0D2
:103600000A2110E010210EE010204FF0000B08906E
:103610000CE010214FF0000B44F004044FF00809B7
:10362000089103E008214FF0000B0891C4F3025306
:10363000022B04D001CF0021032B06D006E0FF1D92
:1036400027F00707F7E8020103E080B2042B00D15E
:10365000C0B24FF0000823072BD5702A07D0DDF841
:1036600020C08CF0100C5CEA0B0C05D00EE040235F
:103670008DF82430012308E050EA010306D03023FE
:103680008DF824308DF8252002239846DDF820C0DF
:103690008CF0080C5CEA0B0C0BD150EA010301D151
:1036A000630706D530238DF824304FF00108A9F1C7
:1036B0000109582A04D038A20B9208AA0A920BE0FA
:1036C0003AA2F9E75B46089AFDF78BF80B9B9B5CE7
:1036D0000A9A521E0A92137050EA0102F2D10A9815
:1036E000ADEB000000F1200B600702D524F480341C
:1036F00001E04FF00109D94502DDA9EB0B0000E024
:10370000002000EB0B0141440890AAEB010AE00302
:1037100006D4DDE90F232146504600F063F8064445
:103720004FF0000908E009A911F80900DDE90F12BE
:10373000904709F10109761CC145F4DBE0030CD583
:10374000DDE90F232146504600F04CF8064404E022
:10375000DDE90F1230209047761C0899481E08902A
:103760000029F5DC08E00A980A990078491C0A91BA
:10377000DDE90F129047761CBBF10001ABF1010BA4
:10378000F1DC21465046DDE90F2300F019F806442C
:103790006D1C1BE6092801003031323334353637D1
:1037A000383961626364656600000000303132338D
:1037B000343536373839414243444546000000002D
:1037C0002DE9F041044600251E461746880404D41E
:1037D00005E039462020B0476D1C641EF9D5284607
:1037E000BDE8F0812DE9F041044600251E469046D3
:1037F000C80301D5302700E02027880404D505E060
:1038000041463846B0476D1C641EF9D52846BDE8D0
:10381000F08100002DE9FE4F07460E460025684660
:1038200000F0E6FF00246FF00F0AE8464FF00109B0
:1038300057F8240056F82410401A00D54042FCF7EF
:1038400066FF5146FCF7B8FD58F8241011F0FF4F01
:103850000BD0FCF773FD4FF07E51FCF737FD0A49A2
:1038600020F00040884205DC07E008490844084988
:10387000884202D309FA04F00543641C032CD7DB09
:103880002846BDE8FE8F0000295C0F3E666666C1D3
:103890009A99D9002DE9F04D8D4F21F0004A86B05C
:1038A00005460C46BA452ADBAAEB070028430AD096
:1038B0008848824501DC1AD1CDB106B02846BDE862
:1038C000F04DFFF74CBD844A844B2846FCF727FE99
:1038D00007460E46824A834B28462146FCF71FFEC8
:1038E00006B03A463346BDE8F04DFCF771BD012005
:1038F000FFF758FD06B0BDE8F04DFFF735BD7A483B
:10390000824542DABAF1795F0BDA2846FFF7AEFC5E
:10391000042808BFFFF72EFD284606B02146BDE863
:10392000F08D2A460B461046FCF7F9FD8346024609
:103930006E480E460B4606217844FFF7BBFC5A46FC
:103940003346FCF7ECFD804669488A465A463346C2
:1039500004217844FFF7AEFC5A463346FCF7DFFDFE
:1039600000223B46FCF734FD02460B4640465146DA
:10397000FCF747FE2A462346FCF7D1FD06B02A464F
:103980002346BDE8F04DFCF723BD284624F0004156
:1039900000223D463B46FCF7BFFD4FF0FF32FCF7EF
:1039A0009FFE0646024653480F460B4606217844C2
:1039B000FFF780FC32463B46FCF7B1FDCDE9000144
:1039C0004D4832463B4604217844FFF773FC3246AB
:1039D0003B46FCF7A4FD00222B46FCF7F9FC83468E
:1039E00002913046394602F07DF9804643480D4643
:1039F000504517DCDDE900015A46029BFCF701FE49
:103A000042462B46FCF78BFD42462B46FCF7E0FC7A
:103A10000122FCF765FE304A304BFCF77AFD304A54
:103A2000304B4CE04FF0000A52460B464046FCF744
:103A3000CFFCCDE9031052462B4610461946FCF741
:103A40006EFD32463B46FCF767FDDDE90332FCF7CD
:103A5000D8FD06460F46DDE900015A46029BFCF7F9
:103A6000D0FD83460091012230463946FCF738FEEE
:103A7000194A1A4BFCF750FD06460F4601224046F4
:103A80002946FCF72DFE5A46009BFCF748FD3246BE
:103A90003B46FCF73EFD06460F46012250462946AE
:103AA000FCF71EFE0E4DDFF858802A464346FCF711
:103AB00033FD32463B46FCF72FFD2A464346FCF7D2
:103AC0002BFD002CD8BF81F0004106B0BDE8F08D81
:103AD0000000F03F0000F07F075C143326A6913C05
:103AE000182D4454FB21F93F0000E03F243600002C
:103AF0003A360000AE350000C43500003333EF3FE6
:103B0000FB21E93F2DE9F84F04460D4621F0004026
:103B100000917349814211DC7249884201DC06D16F
:103B20002CB120462946BDE8F84FFFF718BC6E4877
:103B3000002DCCBF6D496E49BDE8F88F6D498142BB
:103B400011DD6D498142D8BF4FF0FF366DDD204653
:103B50002946FFF78BFB042808BFFFF70BFC204624
:103B60002946BDE8F88F6549654F25F0004581423B
:103B700033DD6449814219DD002632464FF080432F
:103B800020462946FCF724FC80468A46012220462E
:103B90002946FCF7A5FD00223B46FCF7BAFC42464D
:103BA0005346FCF72EFD04460D463EE0012600225A
:103BB000BA463B4620462946FCF70AFC80460F469B
:103BC0000022534620462946FCF7A3FC42463B46CA
:103BD000FCF717FD04460D4627E04B4981421BDDEB
:103BE000DFF828A102260022534620462946FCF78A
:103BF00096FC00223B46FCF7EBFB80460F4600227A
:103C0000534620462946FCF784FC42463B46FCF7D7
:103C1000F8FC04460D4608E0032622462B46002009
:103C20003B49FCF7EEFC04460D4622462B46104667
:103C30001946FCF774FC8B46824602460B46FCF79D
:103C40006EFC07460246334888460B4606217844F8
:103C5000FFF730FB52465B46FCF761FC82462E487C
:103C60008B463A46434605217844FFF723FB3A4604
:103C70004346FCF754FC02460B46002E504659467C
:103C80000CDAFCF7A5FB22462B46FCF748FC01B0FA
:103C900022462B46BDE8F04FFCF73EBCFCF798FBF4
:103CA00022462B46FCF73BFC1C4A7A4402EBC60337
:103CB000D3E90023FCF72DFC22462B46FCF729FC18
:103CC000174A7A4402EBC603D3E90023FCF724FC2D
:103CD000009A002AB8BF81F00041BDE8F88F0000CB
:103CE000000010440000F07F182D4454FB21F93FE0
:103CF000FB21F9BF0000DC3F0000203E0000F33F45
:103D00000000F03F0000E63F008003400000F83F65
:103D10000000F0BFC63300008433000022330000EF
:103D2000EA3200002DE9F04D9446CCF1000423F076
:103D300000464CEA0404524F46EAD4749A46884638
:103D400021F00042BC4206D8454240EA050442EA5E
:103D5000D474BC4204D9BDE8F04D6246FFF702BB03
:103D6000AAF14055A5F17F6555EA0C040BD0022459
:103D700004EAAA74434DDFF810E144EAD87452EA29
:103D8000000B04D00CE0BDE8F04DFFF7BBBE002CEB
:103D900014BF012CBDE8F08D022C30D0032C32D0A2
:103DA00056EA0C0B0AD0BE4220D1BA4209D126F005
:103DB000804622F080423346114617E000291ADB84
:103DC00025E0DFF8C8B0FB44002C04BFDBE90001AC
:103DD000BDE8F08D012C02BFDBE9000181F000415C
:103DE000BDE8F08D022C0AD0032C0CD0BA4212D1BF
:103DF000B8F1000F0BDA23482549BDE8F08D2846BD
:103E00002449BDE8F08D28467146BDE8F08D1D4877
:103E10002149BDE8F08D921B12153C2AC4BF1948F8
:103E20001D490EDCBAF1000FBEBF12F13C0F00209D
:103E3000014606DB6246FCF7E4FB21F00041FFF798
:103E400061FE002C08BFBDE8F08D012C04BF81F09D
:103E50000041BDE8F08D114A114B022C07D0FCF750
:103E600058FB2A46BDE8F04D0A4BFCF752BBFCF765
:103E700050FB2A46BDE8F04D064BFCF74DBB000059
:103E80000000F07F182D4454FB2109C07E32000051
:103E9000FB21F9BFFB210940FB21F93F075C1433EB
:103EA00026A6A13C08B560B120208DF8000028208E
:103EB0008DF8010030208DF8020038208DF80300C5
:103EC00004E0A32204216846FCF78FF96A46042126
:103ED00040F69E2001F05CFE01F01AFB08BD0000D8
:103EE0003EB5044602208DF80000CA208DF801007E
:103EF000E3208DF8020009208DF803006A460421B2
:103F0000682001F045FEA3208DF80000610609D568
:103F1000C0218DF80110C8218DF80210C2218DF842
:103F2000031005E08DF801008DF802008DF8030004
:103F300014F4C07F09D0C4218DF80410CC218DF871
:103F40000510C6218DF8061005E08DF804008DF8E7
:103F500005008DF806008DF808008DF807008DF833
:103F600009006A460A2140F6A72001F011FEA007C9
:103F70004FF0D80503D020208DF8000001E08DF827
:103F800000506A46012140F6B62001F001FEA0066D
:103F900001D5012000E0002000F08EF814F4C07F6D
:103FA0001ED0E0050AD5B2208DF800008B208DF8D8
:103FB0000100B6208DF802009B2009E0B0208DF8AA
:103FC000000080208DF80100B4208DF802009020C0
:103FD0008DF803006A46042140F6A22001F0D8FDC6
:103FE000E1074FF40B6022D0F8218DF800106A46EB
:103FF000012101F0CDFDFA21072000F039FB072057
:1040000000F004FB012000F021FB642000F0C4FB61
:104010004FF4FA7000F0D0FBC821254800F0BEFA3A
:10402000282000F0D3FA0A2000F0E0FA05E08DF82D
:1040300000506A46012101F0ABFDA00703D5D9204D
:104040008DF8000001E08DF800506A46012140F231
:104050003D7001F09DFD600701D5012000E00020CA
:1040600000F048F8E00601D5012000E00020FFF74D
:1040700019FF104D44F00800688101F049FA002052
:10408000A873600601D50620A87314F4C07F02D07F
:10409000A87B801DA87314F0140F02D0A87B1030E9
:1040A000A873A00702D0A87B001DA87300203EBD06
:1040B00009E3CA02C40000200EB54FF4976310B1A3
:1040C00006A107C901E008A207CA8DE807006A46F1
:1040D0000921184601F05CFD0EBD0000B8AAB38DA1
:1040E000B4980D355D000000B8AAAAAAB088C3C56F
:1040F000C700000008B560B1C0208DF80000C220E4
:104100008DF80100C4208DF80200C6208DF8030050
:1041100004E08B2204216846FCF767F86A46042114
:1041200040F6982001F034FD01F0F2F908BD0000DE
:10413000C8234FF48062024940F6F63001F0CAB855
:10414000506300082DE9FF4F89B01746DDE916528C
:1041500000244C4E884681462C80A246B07B69469E
:1041600001F064F94FF0FF3B18B158460DB0BDE8BF
:10417000F08F708910F0140F3CD0009909BA21F02B
:10418000FF039DF803100B433B6001991B1409BA10
:1041900021F0FF029DF807105B430A437A60029901
:1041A0009DF80B4009BA21F0FF012143B960039C3F
:1041B000091424BA24F0FF0C9DF80F4012144CEAA5
:1041C000040CC7F80CC04FEA2C47494302FB0232EB
:1041D00007FB071111441024A1F17061B1F1007FB8
:1041E00004D901F095F9A5F800A0BEE7298841F4AB
:1041F000807129804206694611D50A19A41D1388C9
:104200005BBAA8F8003053885BBAA8F802309288ED
:1042100052BAA8F804202A8842F008022A8010F432
:10422000C07F11D00A19A41D13885BBAA9F8003009
:1042300053885BBAA9F80230928852BAA9F80420D0
:104240002A8842F070022A80800716D00C44E07859
:1042500000F0C00500F03F016078C00706D0C80834
:1042600001F007013268491C02B1904760780007ED
:1042700003D5716809B1A80988470C9800F076FD4C
:10428000002073E7C40000202DE9FF41044603A885
:1042900000F0D6FEBDF80C00410CC3032F48028984
:1042A00002F00300550754F8200000D54042C2F345
:1042B000C105960654F8255000D56D42C2F381160B
:1042C000D20554F8264000D56442A0FB0367C2170C
:1042D00002FB037200FB0120820042EA9670A5FBFC
:1042E0000367EA1702FB037205FB0122950045EA0A
:1042F0009672A4FB0367E51705FB037304FB01310A
:104300008B0043EA9671030E8DF80030030C8DF894
:104310000130030A8DF802308DF80300100E8DF87D
:104320000400100C8DF80500100A8DF80600080E28
:104330008DF80800080C8DF80900080A8DF80A00AD
:104340008DF807208DF80B106A460C214FF425706C
:1043500001F01EFC04B0BDE8F0810000C4000020A4
:1043600030B5044613A285B007CA8DE807004FF0A8
:10437000FF35C82C16D8C820B0FBF4F1491E080A36
:104380008DF80C008DF80D1003AA022140F21620C2
:1043900001F0FEFB30B96A460C2140F6C12001F065
:1043A000F7FB10B1284605B030BD054884810020D8
:1043B000F9E70000FEF2ABC4AAF1DFDFBBAFDFDF3D
:1043C000C4000020F8B53049098901F0030250F813
:1043D00022404A0700D56442C1F3C1028B0650F85F
:1043E000222000D55242C1F3811350F82330C80572
:1043F00000D55B42254984FB0140850045EA947065
:1044000082FB0142A40F44EA820483FB0121950F41
:1044100045EA8105010E8DF80010010C8DF80110A0
:10442000010A8DF802108DF803006A4604214FF44A
:10443000747001F0ADFB4FF0FF3688B9200E8DF897
:104440000000200C8DF80100200A8DF802008DF884
:1044500003406A4604214FF4757001F099FB08B1DE
:104460003046F8BD280E8DF80000280C8DF80100AC
:10447000280A8DF802008DF803506A4604214FF493
:10448000767001F085FBF8BDC400002009E3CA0284
:104490002DE9FF4104463CA004F0030300680290AC
:1044A0003AA0006803903AA006683AA0056802A8FE
:1044B000C15C8DF80010C4F3C101425C8DF801208D
:1044C000C4F38112805C8DF8020003A8C35C8DF8F0
:1044D0000430415C8DF80510805C8DF806006A465A
:1044E000032140F2264001F053FB4FF0FF37E0BBC1
:1044F00001AA032140F22A4001F04AFBA8BBCDE902
:10450000006560070BD59DF8000040F001008DF8B4
:1045100000009DF8040040F001008DF80400A006A2
:104520000BD59DF8010040F001008DF801009DF8C9
:10453000050040F001008DF80500E0050BD59DF861
:10454000020040F001008DF802009DF8060040F0E6
:1045500001008DF806006A4603214FF4886001F0DF
:1045600017FB10B901AA032100E004E040F231403A
:1045700001F00EFB18B1384604B0BDE8F0810648E2
:1045800004810020F8E700004CCD6C000CC92C0021
:104590003656760026466600C40000204FF47A7234
:1045A00090FBF2F008B54843010E8DF80010010CA5
:1045B0008DF80110010A8DF802108DF803006A468B
:1045C00004214FF4AE7001F0E3FA08BD0521B0FB01
:1045D000F1F008B5010A8DF800108DF801006A4667
:1045E00002214FF4AD7001F0D3FA08BD0521B0FBF4
:1045F000F1F008B5010A8DF800108DF801006A4647
:1046000002214FF4AC7001F0C3FA08BD08B50021D7
:104610008DF80010C10702D030218DF800108107FD
:1046200005D59DF8001041F00C018DF800104007F1
:1046300005D59DF8000040F003008DF800006A46A3
:1046400001214FF4A47001F0A3FA08BD08B560B1D0
:10465000042800D90420401E8DF800006A4601217C
:1046600040F24F1001F094FA08BD0120F3E700007A
:104670002DE9FC41054640074FF0FF367CD0B1F5EF
:10468000C86F79D80846FCF74BF83E49FBF756FE51
:10469000074601A800F0B6FC9DF80400022806D0E9
:1046A00004280DD008282ED0102865D134E00E2122
:1046B0003846FBF781FEFCF751F884B2324907E037
:1046C0000D213846FBF778FEFCF748F82F4984B2F5
:1046D0003846FBF701FEFCF741F8210A8DF800107F
:1046E00080B28DF80140010A8DF802108DF80300A8
:1046F000E8076C4620D0224602214FF4EA7001F010
:1047000047FAC8BB11E00C213846FBF755FEFCF711
:1047100025F884B21E49DBE70B213846FBF74CFE37
:10472000FCF71CF884B21B49D2E7A21C02214FF40B
:10473000927001F02DFAF8B9A8070DD56A4602214A
:104740004FF4EC7001F024FAB0B9A21C02214FF42E
:10475000947001F01DFA78B9680710D56A460221F5
:104760004FF4EE7001F014FA30B9A21C02214FF49C
:10477000967001F00DFA10B13046BDE8FC810020C2
:10478000FBE7000000004843000040460000C04531
:10479000000040450000C0440521B0FBF1F008B521
:1047A000010A8DF800108DF801006A4602214FF4CD
:1047B000EF7001F0EDF908BD0521B0FBF1F008B58F
:1047C000010A8DF800108DF801006A4602214FF4AD
:1047D000ED7001F0DDF908BD13B54FF0FF33012294
:1047E00069460248FDF77AFD00981CBD540200207E
:1047F0002DE9FE430646264801AB042240680D2100
:104800000078FDF79DFF10B10720BDE8FE839DF8FD
:1048100004101C2000EAD1029DF80710DFF8749004
:10482000C1F301131A438DF800209DF80520C1F350
:10483000810300EAD2021A438DF801209DF8062078
:1048400001F0030100EAD20008430024124F8DF862
:104850000200A0466D46285D10B146F824900AE09B
:1048600046F824800DE000BF56F824003946FBF7D7
:1048700033FD46F82400285D401E10F0FF00285547
:10488000F2D1641CE4B2032CE5D30020BDE70000A4
:10489000040000207B14AE3E1D5A843F2DE9FE4FDC
:1048A00005460120C14E8DF800004FF000088DF83C
:1048B000018030680C461746817C70686B46022286
:1048C0000078FDF773FF4FF0FF3A00287AD1C82037
:1048D000FCF7FEF98DF8008030686B460122C17B41
:1048E00070680078FDF762FF0028EFD130686B46F2
:1048F0000122417970680078FDF758FF0028E5D162
:1049000030686B460122817C70680078FDF74EFFAD
:104910000028DBD130686B460122C17D70680078C9
:10492000FDF744FF0028D1D130686B4601220179A0
:1049300070680078FDF73AFF0028C7D14FF00C09E6
:104940008DF8009030686B4601220179706800781C
:10495000FDF72CFF002835D10F20FCF7B9F9B06A1C
:104960006B460122407A8DF80000306881787068CB
:104970000078FDF71BFF002824D1B06A6B460122A6
:10498000007A8DF800003068417870680078FDF793
:104990000DFF002873D1B06A807A0FB140F0E000BB
:1049A0008DF8000030686B460122817970680078CC
:1049B000FDF7FCFE002862D12FB1B06AC07A40F04A
:1049C000E00001E04AE018208DF8000030686B46F6
:1049D0000122C17970680078FDF7E8FEF0BB17B1DD
:1049E000C820FCF775F940208DF8000030686B4650
:1049F0000122017970680078FDF7D8FE70BB78203D
:104A00008DF8000030686B460122417970680078AB
:104A1000FDF7CCFE10BB3220FCF75AF98DF8008070
:104A2000306847466B464179706801220078FDF78F
:104A3000BDFE98B931687068B046897A00786B46D7
:104A40000222FDF77DFE48B9BDF80000AF6040BA14
:104A5000B0FBF9F06F60C6B22F6000E00FE0A76016
:104A600067602760002739E0D8F80010D8F8040004
:104A70006B46C97A00780C22FDF762FE10B15046F1
:104A8000BDE8FE8FBDF80000236840BA02B2BDF851
:104A90000200BDF804101A44226040BA626800B2F5
:104AA0001044606049BAA06809B20844A060BDF82B
:104AB00006002B6840BA02B2BDF808001A4440BA9A
:104AC00001B2BDF80A002A606A6840BA1144696000
:104AD000A96800B208447F1CFFB2A860B742C3D3E4
:104AE00028688322C117090441EA10410004002309
:104AF000FBF73AFB32460023FBF736FB2860686879
:104B00008322C117090441EA104100040023FBF786
:104B10002BFB32460023FBF727FB6860A868832243
:104B2000C117090441EA104100040023FBF71CFBF4
:104B300032460023FBF718FBA86020684FF400659D
:104B4000C117090441EA104100042A460023FBF77B
:104B50000BFB32460023FBF707FB206060682A4608
:104B6000C117090441EA104100040023FBF7FCFAD5
:104B700032460023FBF7F8FA6060A0682A46C117A6
:104B8000090441EA104100040023FBF7EDFA324624
:104B90000023FBF7E9FAA060002802DDA0F58030D1
:104BA00001E000F58030A060002069E704000020EB
:104BB0002DE9F84F81462E488846002540686B460F
:104BC000032200780D21FDF7BBFD10B10720BDE8E1
:104BD000F88F9DF80000002400F01F008DF8000001
:104BE0009DF801006FF00F0B00F01F008DF8010021
:104BF0009DF802006E4600F01F008DF802004FF095
:104C0000010A00BF59F8241058F82400081A00D5EA
:104C10004042FBF77CFD5946FBF7CEFB0746305D73
:104C2000C0B1144802E01449FBF756FB315D491E40
:104C300011F0FF013155F6D101463846FBF77EFBF6
:104C40004FF07E51FBF742FB0C4920F000408842B8
:104C500005DC07E00A483844B0F1D97F02D90AFAE6
:104C600004F00543641C032CCCDB2846AFE70000AE
:104C7000040000200000C84154E3853F295C0F3E3A
:104C80000000E0BE00B5024600F00DF80346D01C5F
:104C900000F009F843EAC003901D00F004F843EA6D
:104CA000801080B200BD90F90010002902DD4FF0A5
:104CB0000000704702DA4FF00400704790F90110CD
:104CC000002902DD4FF00100704702DA4FF00500C5
:104CD000704790F90200002802DD4FF00200704793
:104CE00002DA4FF0060070474FF0070070470000EF
:104CF000FCF714F9FDF7FCFFFDF782FDFDF7F8FD69
:104D0000FDF74EFEFDF782FEFDF7BAFEFDF7EEFE63
:104D1000FDF720FFFDF73AFF00F022F901460DA054
:104D2000FEF794FA00F01CF90028FBD10CA0FEF766
:104D30008DFAFBF7A1FE0C4CFDF790FC20790128C1
:104D400001D101F077F9E0780128F5D100F0F0FF0A
:104D5000F2E70000696E69743D25640D0A000000E9
:104D60004F4BA3A10D0A00005C000020704700001B
:104D70002DE9F041124C20F00101002594F82400A7
:104D800010B10020BDE8F081A07A4FF0FF3668B185
:104D90000840277C2074884200D0354641B101206C
:104DA00000F074FF00F0B4FB38B127743046E9E737
:104DB000207D00B1012000F069FF2846E2E70000F5
:104DC000040000202DE9F74F8EB00CA902A8CDE910
:104DD00000010BAB03AA09A907A8FFF7B3F918B1A3
:104DE000012011B0BDE8F08FBDF80800C0057DD5E9
:104DF0000398FBF78CFC6FF01D042146FBF7DCFAEF
:104E000082460498FBF783FC2146FBF7D5FA8146DE
:104E10000598FBF77CFC2146FBF7CEFA8046069806
:104E2000FBF775FC2146FBF7C7FA05460121504602
:104E3000FBF7C2FA06464146FBF74EFA04464FF02E
:104E400040414846FBF748FA07462946FBF744FA33
:104E50002146FBF7E9F9FBF795FCFEF71BFD4FF048
:104E6000663B5A463D4BFBF75AFBFBF79EFC0E99FF
:104E7000086001214046FBF79FFA41460090FBF78E
:104E80002BFA044638464946FBF726FA2146FBF73B
:104E90001DFA4FF07E51FBF7C7F9FBF773FC07468D
:104EA0000C4630464946FBF717FA06462946009855
:104EB000FBF712FA3146FBF7B7F9FBF763FC3A460A
:104EC0002346FEF72FFF5A46244BFBF728FBFBF740
:104ED0006CFC0F99086029460846FBF7FDF9074668
:104EE00041460846FBF7F8F9064600E034E049463B
:104EF0000846FBF7F1F9044651460846FBF7ECF982
:104F00002146FBF791F93146FBF7E0F93946FBF70B
:104F1000DDF9FBF737FC06460C4629465046FBF701
:104F2000DBF9054641464846FBF7D6F92946FBF72B
:104F30007BF90121FBF740FAFBF724FC32462346BC
:104F4000FEF7F0FE5A46054BFBF7E9FAFBF72DFC9E
:104F500010990860002044E7022042E766A64C4012
:104F600010B5FDF741FA00F0F1F808B10A2010BDC4
:104F7000782000F0B1FD10F0FF0F01D0012010BD2E
:104F80007820FFF7F5FE10F0FF0F01D0022010BDD2
:104F9000642000F061FD10F0FF0F01D0032010BD70
:104FA000FFF7C6F810F0FF0F01D0042010BD144821
:104FB000FFF768FEFFF76CFA10F0FF0F01D0052035
:104FC00010BD40F27310FEF78BFF10F0FF0F01D001
:104FD000062010BD6420FFF7C3F910F0FF0F01D0C9
:104FE000072010BD00F012FE08B1082010BD0120FE
:104FF00000F058FC10F0FF00F8D0092010BD0000B0
:10500000300000200D494A7A42B1012A08D0022A14
:105010000FD0032A0FD04FF0FF307047022200E07C
:1050200004220270C97C11B11106C90D0170002063
:1050300070470822F5E71022F3E700000400002083
:105040000F494A7A42B1012A09D0022A11D0032A13
:1050500012D04FF0FF3070474FF4804201E041F62C
:105060009C720280C97C11B1C2F34E010180002004
:1050700070474FF48052F4E74FF40062F1E700000C
:10508000040000200B49097A39B1012907D002290F
:105090000AD003290BD0002103E0FA2101E04FF4EC
:1050A000FA710180002070474FF47A71F9E74FF4EC
:1050B000FA61F6E7040000200A49097A41B10129A2
:1050C00008D002290AD003290AD04FF0FF307047D8
:1050D000054900E005490160002070470449FAE7EE
:1050E0000449F8E704000020000003430000834265
:1050F00033330342333383410C49C97A072913D22E
:10510000DFE801F01204060A0C0E1000BC2100E0DA
:1051100062210180002070472A21FAE71421F8E774
:105120000A21F6E70521F4E70021F2E70400002058
:10513000054991F8242012B14FF0FF307047C9891A
:105140000180002070470000040000202DE9FC4190
:105150004C4C80208DF8000020686B460122817C39
:1051600060680078FDF722FB4FF0FF37002832D14E
:105170006420FBF7ADFD00258DF8005020686B46DC
:105180000122817C60680078FDF710FB002870D157
:1051900020686B460622817D60680078FDF7D0FAB2
:1051A000002866D19DF805009DF80310C007400F48
:1051B00001F0010140EA41019DF801004FF00106B4
:1051C00000F00100014309D0012905D0022915D0C2
:1051D0002DA0FEF73BF84CE0E67410E020686B462B
:1051E0000122C17860680078FDF7AAFA40BB9DF8FB
:1051F000000010F00F0020D0042822D0E574FF201A
:1052000004F80A0F4FF6FF7104F8020C04F8010CC1
:105210006070A180A0712072A67026766576E57216
:10522000A572E56025616561A576E576A5834FF4F5
:10523000FA6000F073FB18B907E01D48FEF706F8A6
:1052400017E01CA0FEF702F8C6E7022000F088FA7B
:1052500078B92A2000F0CAFB58B9322000F0FCFBD4
:1052600038B90020FFF784FD18B9002000F0ACFA2F
:1052700010B13846BDE8FC81002000F02DFC002074
:10528000F8E7000004000020556E737570706F72AF
:1052900074656420736F6674776172652070726FD5
:1052A00064756374207265762025642E0A00000000
:1052B0005070000848616C662073656E736974698C
:1052C00076697479207061727420666F756E642ED1
:1052D0000A0000002DE9FF4FDFF89480064685B0F4
:1052E00098F8250015460F464FF0FF39B0BBAFB315
:1052F000002420E0301B102800DD102080B28346FF
:105300003A1901469246204600F042FC30BB6A46FC
:105310005946204600F0D2F800BB50465A4669462E
:10532000FAF775FF20B16FF0010009B0BDE8F08F0A
:1053300004EB0B0084B2B442DCD3280A8DF81000D1
:105340008DF81150D8F80000444604AB817ED8F89F
:10535000040002220078FDF729FA08B14846E4E784
:10536000012084F825000898E0840020DDE7000093
:10537000040000202DE9F84305464FF0FF392828A6
:1053800044D80727284C00267DB1012000F0FCFA04
:1053900020208DF800004FF00108012D17D0052DB9
:1053A00018D88DF8018005201FE0002000F0ECFAED
:1053B0008DF800608DF8017020686B460222817CB8
:1053C00060680078FDF7F2F900BB267529E08DF8DA
:1053D0000160E8E7142D04D802208DF801000A20AE
:1053E00003E003208DF80100142000F0FFFA9DF87F
:1053F00001006B4607EB80108DF801002068022247
:10540000817C60680078FDF7D1F910B14846BDE8AD
:10541000F8830820A072267384F814800020FFF718
:10542000A7FC0020F3E70000040000202DE9F8436A
:10543000214C0646174694F8240089464FF0FF3861
:1054400090B3A07A80B320686B460222817A6068AC
:105450000078FDF775F938BBBDF8000045BAB542D4
:1054600002D2002038701FE060684188B5EB510F10
:1054700011D9216800786B46497C0122FDF760F95B
:1054800090B99DF80000C00605D500F041F86FF016
:105490000100BDE8F8832068F2B24B46C17A60682B
:1054A0000078FDF74DF908B14046F2E7B5FBF6F09C
:1054B000401E38700020ECE704000020F8B516000C
:1054C0000D464FF0FF371FD0104CA17AE1B1010A11
:1054D0008DF80010C0B28DF8010041196068428952
:1054E000914211D8216800786B46097E0222FDF7AF
:1054F0005DF948B92068EAB23346417D60680078BA
:10550000FDF71EF9002800D03846F8BD0400002041
:10551000F8B5564C4FF0FF36A07A00287DD0002514
:105520008DF8005020686B460122C17B60680078CE
:10553000FDF73CF9002870D120686B4601224179C3
:1055400060680078FDF732F9002866D120686B4664
:105550000122017960680078FDF728F900285CD104
:1055600094F82400E0B30C208DF8000020686B460E
:105570000122017960680078FDF718F9002872D1DE
:105580003220FBF7A5FBC0208DF80000A07AC007F1
:1055900002D0E0208DF8000020686B4601220179DE
:1055A00060680078FDF702F900285CD1607C18B1D2
:1055B00002208DF8000001E08DF8005020686B4655
:1055C0000122C17B60680078FDF7F0F828BB8DF8F8
:1055D000005020686B4601224179606800783EE007
:1055E000FFE704208DF8000020686B460122017956
:1055F00060680078FDF7DAF878B9A07C90B9A07AF5
:10560000C0070FD05FF060008DF8000020686B4687
:10561000012201796068007800E024E0FDF7C6F817
:1056200008BB01E04020EFE73220FBF751FB607C34
:1056300018B101208DF8000001E08DF800502068BD
:105640006B460122C17B60680078FDF7AFF850B966
:105650002068064B01224179606810330078FDF71D
:10566000A5F8002800D03046F8BD00000400002056
:105670002DE9F047394C82468AB094F824000F4651
:1056800020B1002000F00EF9012600E0002607A856
:10569000FFF7F8FC06A8FFF7B5FC09A8FFF72CFDFB
:1056A00008A8FFF745FD94F80A9094F810800025AB
:1056B000002239465046FFF7F1F810B16D1C022D5B
:1056C000F6DB022D1AD00025012203A96846FFF758
:1056D000E5F810B16D1C022DF6DB022D0ED003A9EA
:1056E0003846FEF797F8C7B269465046FFF760FAAA
:1056F00010F0FF0F4FF0000502D002E0002503E09C
:1057000001250FB945F00205FF2020726072E0729A
:105710004FF6FF71E181A072207401202073BDF863
:105720001C0000F0FBF89DF8180000F019F8BDF817
:10573000240000F05BF9BDF8200000F08DF9484628
:1057400000F0CAF94046FFF713FB16B1012000F044
:10575000A9F80AB02846BDE8F08700000400002040
:1057600038B5184C4FF0FF35A17A19B3022806D08E
:10577000042806D008280ED010281BD10DE00020E8
:1057800000E008208DF80000607A9DF80010B0EB72
:10579000D10F04D005E01020F4E71820F2E7002034
:1057A00038BD20686B460122C17960680078FCF73B
:1057B000FDFF08B1284638BD9DF80000C0086072A2
:1057C000EDE7000004000020F8B5354C0546A07C4C
:1057D000A84201D10020F8BD31484FF0FF366B469A
:1057E000D0E900104FF001020979007835B3FCF7D9
:1057F000A7FF70BB9DF800006B4620F020008DF8DD
:10580000000020680122017960680078FCF7CEFF73
:10581000F8B90320FBF75CFA02208DF8000094F839
:10582000220078B382202BE020686B460122017DA4
:1058300060680078FCF7BAFF58B92EE0FCF780FFEB
:1058400038B9A07AC0079DF8000003D040F02000CE
:1058500002E00CE020F020008DF8000020686B468C
:105860000122017960680078FCF7A0FF08B130469A
:10587000F8BD0320FBF72CFA94F8220000B1802039
:105880008DF8000094F823000028CDD09DF800008A
:1058900040F030008DF80000C6E7A5749AE70000DC
:1058A0000400002038B51C4C94F8241081421DD00F
:1058B000002500B394F82500D0B1002000F0E6F9EF
:1058C0000020FFF781FFE08C00F0C6F88DF8005053
:1058D00060686B46012200782321FCF767FF0120F6
:1058E00084F8240000F0D2F9FFF712FE002038BD42
:1058F0004FF0FF3038BD002000F0C8F9207C8DF853
:10590000000060686B46012200782321FCF74EFFFF
:1059100084F82450E8E700000400002038B5194C52
:105920004FF0FF35A17A31B3FA2809D0B0F5FA7FEC
:1059300008D0B0F57A7F0FD0B0F5FA6F1BD10DE02B
:10594000002000E008208DF80000207A9DF800106B
:10595000B0EBD10F04D005E01020F4E71820F2E7F7
:10596000002038BD20686B4601228179606800788C
:10597000FCF71CFF08B1284638BD9DF80000C008A0
:105980002072EDE70400002038B5174C054694F866
:105990002300A84201D1002038BD0DB1302000E025
:1059A00000208DF80000A07C28B19DF8000040F098
:1059B00002008DF8000094F8220028B19DF8000044
:1059C00040F080008DF8000020686B460122017DC8
:1059D00060680078FCF7EAFE10B14FF0FF3038BD88
:1059E00084F82350D7E700000400002038B5194C94
:1059F0004FF0FF35A17A31B3BC2801D3012010E06C
:105A0000622801D302200CE02A2801D3032008E0F9
:105A1000142801D3042004E00A2801D3052000E063
:105A200006208DF80000E07A9DF80010884201D130
:105A3000002038BD20686B460122817860680078BC
:105A4000FCF7B4FE08B1284638BD9DF80000E072AE
:105A5000EEE7000004000020F8B51E4D04464FF0AC
:105A6000FF37A87A48B395F8240030BB287D4FF45F
:105A70007A7648B164B1282C03D8E0B2FFF77AFCFB
:105A800026E00020FFF776FC042C05D2042406E073
:105A90000020FFF76FFCF9E7B44200D93446B6FBAB
:105AA000F4F0401E8DF8000028686B460122417812
:105AB00068680078FCF77AFE08B13846F8BD9DF8B2
:105AC0000000401CB6FBF0F0E8814008FFF78EFFB5
:105AD0000020F8BD04000020F8B5054610F0700F56
